{
  "abi": [
    {
      "inputs": [
        {
          "internalType": "address",
          "name": "_lender",
          "type": "address"
        },
        {
          "components": [
            {
              "internalType": "uint256",
              "name": "daiAmount",
              "type": "uint256"
            },
            {
              "internalType": "uint256",
              "name": "daiFee",
              "type": "uint256"
            },
            {
              "internalType": "uint256",
              "name": "collateralAmount",
              "type": "uint256"
            },
            {
              "internalType": "uint256",
              "name": "repayBy",
              "type": "uint256"
            }
          ],
          "internalType": "struct LoanV1.Terms",
          "name": "_terms",
          "type": "tuple"
        }
      ],
      "stateMutability": "nonpayable",
      "type": "constructor"
    },
    {
      "inputs": [],
      "name": "FailedSendCollateral",
      "type": "error"
    },
    {
      "inputs": [],
      "name": "InvalidBorrower",
      "type": "error"
    },
    {
      "inputs": [
        {
          "internalType": "uint256",
          "name": "expected",
          "type": "uint256"
        },
        {
          "internalType": "uint256",
          "name": "actual",
          "type": "uint256"
        }
      ],
      "name": "InvalidCollateral",
      "type": "error"
    },
    {
      "inputs": [],
      "name": "InvalidLender",
      "type": "error"
    },
    {
      "inputs": [
        {
          "internalType": "enum LoanV1.LoanState",
          "name": "state",
          "type": "uint8"
        }
      ],
      "name": "InvalidState",
      "type": "error"
    },
    {
      "inputs": [],
      "name": "LoanIsNotExpired",
      "type": "error"
    },
    {
      "inputs": [],
      "name": "borrow",
      "outputs": [],
      "stateMutability": "payable",
      "type": "function"
    },
    {
      "inputs": [],
      "name": "fund",
      "outputs": [],
      "stateMutability": "nonpayable",
      "type": "function"
    },
    {
      "inputs": [],
      "name": "liquidate",
      "outputs": [],
      "stateMutability": "nonpayable",
      "type": "function"
    },
    {
      "inputs": [],
      "name": "repay",
      "outputs": [],
      "stateMutability": "nonpayable",
      "type": "function"
    }
  ],
  "bytecode": {
    "object": "0x60c060405234801561001057600080fd5b5060405161079a38038061079a83398101604081905261002f9161006a565b33608052805160005560208101516001556040810151600255606001516003556001600160a01b031660a0526004805460ff1916905561010f565b60008082840360a081121561007e57600080fd5b83516001600160a01b038116811461009557600080fd5b92506080601f19820112156100a957600080fd5b50604051608081016001600160401b03811182821017156100da57634e487b7160e01b600052604160045260246000fd5b806040525060208401518152604084015160208201526060840151604082015260808401516060820152809150509250929050565b60805160a0516106526101486000396000818160db0152818161014e0152818161029b01526103ba015260006101d001526106526000f3fe60806040526004361061003f5760003560e01c806328a0702514610044578063402d88831461005b578063b60d428814610070578063e68d356914610085575b600080fd5b34801561005057600080fd5b5061005961008d565b005b34801561006757600080fd5b506100596101fa565b34801561007c57600080fd5b506100596103e4565b6100596104b5565b60028060045460ff1660028111156100a7576100a761058e565b146100d0578060405163683f44bb60e11b81526004016100c791906105a4565b60405180910390fd5b336001600160a01b037f00000000000000000000000000000000000000000000000000000000000000001614610118576040516221eeab60e81b815260040160405180910390fd5b60035442101561013b576040516301cbc0d160e01b815260040160405180910390fd5b6002546040516000916001600160a01b037f000000000000000000000000000000000000000000000000000000000000000016918381818185875af1925050503d80600081146101a7576040519150601f19603f3d011682016040523d82523d6000602084013e6101ac565b606091505b50509050806101ce5760405163548c368760e01b815260040160405180910390fd5b7f00000000000000000000000000000000000000000000000000000000000000006001600160a01b0316ff5b60028060045460ff1660028111156102145761021461058e565b14610234578060405163683f44bb60e11b81526004016100c791906105a4565b60045461010090046001600160a01b0316331461026457604051636f5f81d760e01b815260040160405180910390fd5b600454600154600054736b175474e89094c44da98b954eedeac495271d0f926323b872dd926101009091046001600160a01b0316917f0000000000000000000000000000000000000000000000000000000000000000916102c4916105cc565b6040516001600160e01b031960e086901b1681526001600160a01b03938416600482015292909116602483015260448201526064016020604051808303816000875af1158015610318573d6000803e3d6000fd5b505050506040513d601f19601f8201168201806040525081019061033c91906105f3565b5060045460025460405160009261010090046001600160a01b031691908381818185875af1925050503d8060008114610391576040519150601f19603f3d011682016040523d82523d6000602084013e610396565b606091505b50509050806103b85760405163548c368760e01b815260040160405180910390fd5b7f00000000000000000000000000000000000000000000000000000000000000006001600160a01b0316ff5b60008060045460ff1660028111156103fe576103fe61058e565b1461041e578060405163683f44bb60e11b81526004016100c791906105a4565b6004805460ff191660011781556000546040516323b872dd60e01b815233928101929092523060248301526044820152736b175474e89094c44da98b954eedeac495271d0f906323b872dd906064015b6020604051808303816000875af115801561048d573d6000803e3d6000fd5b505050506040513d601f19601f820116820180604052508101906104b191906105f3565b5050565b60018060045460ff1660028111156104cf576104cf61058e565b146104ef578060405163683f44bb60e11b81526004016100c791906105a4565b60025434101561051f576002546040516341b1e95d60e01b815260048101919091523460248201526044016100c7565b600480546001600160a81b031916336101009081029190911760021780835560005460405163a9059cbb60e01b81526001600160a01b039390920492909216928101929092526024820152736b175474e89094c44da98b954eedeac495271d0f9063a9059cbb9060440161046e565b634e487b7160e01b600052602160045260246000fd5b60208101600383106105c657634e487b7160e01b600052602160045260246000fd5b91905290565b808201808211156105ed57634e487b7160e01b600052601160045260246000fd5b92915050565b60006020828403121561060557600080fd5b8151801515811461061557600080fd5b939250505056fea2646970667358221220814ab02d533518385b35d4b11fdeaa2b21330dfd7e489474a6fef3ea5c0c9aef64736f6c63430008110033",
    "linkReferences": {}
  },
  "methodIdentifiers": {
    "borrow()": "e68d3569",
    "fund()": "b60d4288",
    "liquidate()": "28a07025",
    "repay()": "402d8883"
  },
  "id": 16
}